:020000040800F2
:1000000000500020B97100082D3400082F3400087A
:1000100000000000000000000000000000000000E0
:100020000000000000000000000000003134000863
:1000300000000000000000003334000835340008E0
:1000400009720008097200083D34000809720008AE
:100050000972000809720008097200080972000894
:10006000097200084D3400085D3400086D34000842
:1000700009720008097200087D340008097200083E
:1000800009720008097200080972000800000000E7
:100090000972000809720008097200080972000854
:1000A0000972000809720008097200080972000844
:1000B00009720008097200080000000009720008B7
:1000C00010B5064C2378002B07D1054B002B02D02E
:1000D000044800E000BF0123237010BDC0090020C8
:1000E0000000000098D50008044B10B5002B03D089
:1000F0000349044800E000BF10BDC04600000000F6
:10010000C409002098D50008002243088B4274D30C
:1001100003098B425FD3030A8B4244D3030B8B4208
:1001200028D3030C8B420DD3FF22090212BA030C11
:100130008B4202D31212090265D0030B8B4219D3F2
:1001400000E0090AC30B8B4201D3CB03C01A524112
:10015000830B8B4201D38B03C01A5241430B8B425A
:1001600001D34B03C01A5241030B8B4201D30B0343
:10017000C01A5241C30A8B4201D3CB02C01A52416A
:10018000830A8B4201D38B02C01A5241430A8B422D
:1001900001D34B02C01A5241030A8B4201D30B0216
:1001A000C01A5241CDD2C3098B4201D3CB01C01A30
:1001B000524183098B4201D38B01C01A524143093A
:1001C0008B4201D34B01C01A524103098B4201D328
:1001D0000B01C01A5241C3088B4201D3CB00C01A95
:1001E000524183088B4201D38B00C01A524143080D
:1001F0008B4201D34B00C01A5241411A00D2014632
:10020000524110467047FFE701B5002000F006F8A4
:1002100002BDC0460029F7D076E770477047C04658
:100220008446100062468C461900634600E0C046D2
:100230001FB500F071FE002801D40021C8421FBD87
:1002400010B500F0C1FD4042013010BD10B500F006
:1002500063FE002801DB002010BD012010BDC04658
:1002600010B500F059FE002801DD002010BD01206E
:1002700010BDC04610B500F0E9FD002801DC0020EB
:1002800010BD012010BDC04610B500F0DFFD0028F4
:1002900001DA002010BD012010BDC046002B11D195
:1002A000002A0FD1002900D1002802D00021C94323
:1002B000080007B4024802A14018029003BDC046DE
:1002C0005DFFFFFF03B4684601B5029800F052F8E5
:1002D000019B9E4602B00CBC7047C046F0B5CE46AE
:1002E000474680B5070099463B0C9C4613041B0CFF
:1002F0001D000E0061460004140C000C45434B43E6
:1003000060436143C0182C0C20188C46834203D9EB
:1003100080235B029846C444494679437243030CE8
:1003200063442D042D0CC918000440198918C0BC61
:10033000B946B046F0BDC04670B500220C4B040073
:100340000D00FFF7A1FF002804D12000290001F0D3
:1003500047FC70BD064B00222000290001F0AEF8DA
:1003600001F03EFC80231B069C466044F1E7C0463A
:100370000000E041F0B557464E464546DE46E0B542
:1003800004000D009246994683B08B4230D82DD0A0
:100390004946504601F06EFD29000600200001F09C
:1003A00069FD331A9846203B9B4633D45A46534640
:1003B000934042461F00534693401E00AF423AD836
:1003C000AF4200D178E05B46A41BBD41002B00DAB0
:1003D00075E0002200230092019301235A469340C6
:1003E0000193012342469340009328E08242CFD9F3
:1003F00000220023009201930C9B002B01D01C6073
:100400005D600098019903B0F0BCBB46B246A946B6
:10041000A046F0BD424620239B1A5246DA40414690
:1004200013004A468A40170042461F4353469340F2
:100430001E00AF42C4D9002200230092019343461C
:10044000002BD9D0FB0772081A4346467B080EE002
:10045000AB4201D1A2420CD8A41A9D41012024191B
:100460006D410021013E24184D41002E06D0AB42C3
:10047000EED9013E24196D41002EF8D10098019962
:100480005B4600196941002B24DB2B005A46444689
:10049000D3402A00E2401C005B461500002B2ADBFB
:1004A00026009E40330026004746BE403200801A98
:1004B0009941009001919FE7A342BCD883E742464F
:1004C000202300219B1A0022009101920122DA4090
:1004D000019286E7424620239B1A2A0046469A400C
:1004E0002300F340444613432A00E2401C005B46CD
:1004F0001500002BD4DA42462F0020232600974017
:100500009B1ADE403B003343CDE7C046F0B54F4673
:100510004646D64644024500C0B5640A0F1C2D0E5F
:10052000C60F002D00D18DE0FF2D00D192E00023F9
:10053000802099469A46E400C00404437F3D780237
:10054000430A98467B001B0EFF0F002B00D170E082
:10055000FF2B00D186E04246D00080227F3BED1881
:100560000023D204024390469C4631004B4679401A
:10057000681C0F2B1CD8764A9B00D3589F46390025
:100580004446E2465346022B0FD0032B00D1D7E05E
:10059000012B37D100200024C0052043C9070843A0
:1005A000E0BCBA46B146A846F0BDFF200024F3E700
:1005B000260C2404220C44462404240C4346270021
:1005C0001B0C574374435A435E4312193B0C9B1850
:1005D0009C4203D980225202944666443F041A0486
:1005E0003F0CD2199401671EBC411B0C920E9B1943
:1005F00014439B011C431B0100D49BE001236208B0
:100600001C40144302007F32002A64DD630704D0DB
:100610000F232340042B00D00434230103D5020010
:100620004C4B80321C40FE2ABFDCA401640AD0B2CD
:10063000B2E74346002B3DD14A4601331A43914667
:100640009C4692E7002C29D104239946033B0025C0
:100650009A4674E7002C1BD108239946063BFF25D8
:100660009A466CE74346FF35002B0BD102234A46DE
:100670001A4391469C4678E753463100022B00D03E
:1006800083E792E703234A461A4391469C466CE768
:100690000C239946093BFF259A4650E7200001F0BC
:1006A000CBFB7625431F9C4000236D4299469A461A
:1006B0002D1A44E7404601F0BFFB4246431F9A40D3
:1006C00000232D1A90469C46763D4EE7802400215B
:1006D000FF20E40360E701239B1A1B2B00DD59E791
:1006E00022009E30DA4084401300621E94411C4375
:1006F000630704D00F232340042B00D0043463018C
:100700001AD50120002447E78020C003044209D005
:100710004346034206D14446044364023900FF20A5
:10072000640A39E78020C003044364023100FF20DB
:10073000640A31E7280065E7A4010020640A2BE77A
:100740008020C00304436402FF20640A24E7C046FB
:10075000B0D60008FFFFFFF770B5051E0ED001F000
:100760006BFB9E2304001B1A962B0CDC082801DD72
:10077000083CA5406D026D0AD8B201E000200025BA
:10078000C005284370BD992B09DD020029001B32EA
:1007900091404A1E91410522121AD5400D43052C65
:1007A00012DC29000C4E31406A0709D00F20284086
:1007B000042805D004314A0102D59F2331401B1B78
:1007C00089014D0AD8B2DBE7621F95402900024E2D
:1007D00031406A07F4D0E9E7FFFFFFFBF0B5574669
:1007E0004E464546DE46E0B5814605000C0348000E
:1007F00092461F0085B0240B400DCE0F002800D17B
:1008000056E1D44B984200D172E16B0FE4001C43D7
:1008100080231B0423439846CF4BED009B460023C7
:100820009946834400933C037B005046240B5B0DA8
:10083000FF0F002B00D11FE1C64A934200D162E1B5
:10084000C549420F8C46E400594614438022634454
:100850001204CB1A14439B46C200002033007B4095
:100860009A464B460F2B27D8BC499B00CB589F4636
:10087000B246009B022B16D0032B00D18EE2012B37
:1008800000D0D9E000230024002552461B05234355
:10089000D20713432800190005B0F0BCBB46B2468E
:1008A000A946A046F0BD00240025AA4BEDE7BA46B4
:1008B000A04615000090DCE7444500D2C7E100D116
:1008C000C2E101235B429C462E0040460025E344E2
:1008D0002302140E1C431B0C994623041F0C120206
:1008E000494600920197FFF795FC02007A430B04FA
:1008F000310C804619438A4207D901235B429C464A
:100900000919E0448C4200D807E2881A4946FFF7EB
:1009100081FC09048C4631046646019A090C424365
:10092000030031438A4204D90919013B8C4200D8A3
:10093000EDE1881A424612041A4390464146009B54
:100940000E041B0C1F000293009B360C1B04190C99
:100950000B007343120C7E43039151437A431F0CE7
:10096000BC4676186644B14203D9802149028C46C0
:100970006244310C8A1831041E04360C8E199042E0
:1009800002D312D1B54210D24346591E009B9C4659
:1009900065441F009D429B415B421B19C018844265
:1009A00000D2A0E100D19BE18846AE1BB542AD412B
:1009B000801A6D42401B844200D1D5E14946FFF7C1
:1009C00029FC019A0B044243310C050019438A4269
:1009D00000D96CE1881A4946FFF71CFC019A3604DD
:1009E00042430904360C03000E43B24200D953E1DE
:1009F0000398B61A02002D041D43029F2B041B0C02
:100A00005A437B439C46290C4843130C844463445B
:100A10007943984203D98020400284466144180CEF
:100A200012041B04120C41189B188E4200D2FFE0E6
:100A300000D1FAE001231D43494A5A44002A00DC50
:100A4000AAE06B0700D03DE1ED084346DB0106D587
:100A50004246444B1A4090468022D2005A44424BB0
:100A60009A4200DD1FE743465B071D43434652059C
:100A70005C02240B530D08E75246224300D17BE071
:100A8000002C00D1FAE0200001F0D6F902000B3A68
:100A90001D2301009B1A52460839DA408C4014434A
:100AA00052468A40314B58449B4683440020D5E649
:100AB0004B462343984644D0002C00D1CEE0200082
:100AC00001F0BAF9010002000B391D235B1A4946F7
:100AD0001000D940083884400B004D462343984607
:100AE00085402348831A9B460023994600939AE643
:100AF0004B46234398461DD108239946063B0025C3
:100B0000834600938FE65246224309D10223494689
:100B10001943184B89469C4600240220E3449DE675
:100B200003234A461A43134B91469C4652460320E0
:100B3000E34493E60C239946093BA0468346009381
:100B400071E60423994600239B4601330025009358
:100B500069E6C046FF07000001FCFFFFF0D6000871
:100B6000FF030000FFFFFFFEFE070000F30300008D
:100B70000DFCFFFF01F8FFFF494601231943894699
:100B8000002401206AE6002380249A4600258A4B2F
:100B900024037AE601256D4201239B1A382B00DDE0
:100BA00070E61F2B00DCBFE01F2149428A1A414634
:100BB000D1400A00202B04D04146804B5B44994031
:100BC0000D436B1E9D4107232A431D000024154041
:100BD000134200D1D4E00F2100231140042900D199
:100BE000CBE0111D9142924152429B180A0019021A
:100BF00000D4C2E001230024002546E680234146BC
:100C00001B03194208D01C4206D11C432403BA46D8
:100C10001500694B240B38E68024434624031C430B
:100C20002403B246644B240B2FE6002B00D103E7CC
:100C3000A619681EA64200D28DE08E4200D2A3E023
:100C400000D1B3E00500F5E6AA4200D939E64346F3
:100C5000DE0758086B081E43ED0739E6484601F0E9
:100C6000EBF801000200153120321C2900DC2CE7D2
:100C70004B46083883400025984632E701F0DCF8FF
:100C800003001A00153220301C2A00DC00E754460D
:100C9000083B00229C4005E73619013BB44200D9CD
:100CA000A6E6B24200D8A3E6831E3619A0E60919CB
:100CB000013D8C4200D98DE68A4200D88AE6851E25
:100CC000091987E60F232B40042B00D1BCE605232E
:100CD0005B42AB429B4104355B42ED089844B4E66D
:100CE000AF4200D960E6824204D800D05CE6AE4252
:100CF00000D859E602235B429C46009BE0449C4698
:100D000065449D429B415B421B19C0184DE68A42D7
:100D100000D80EE6831E09190BE68A4200D8F4E5D6
:100D2000831E98460919F0E52549280059448D404D
:100D300042468A40691E8D414146D840D94002430F
:100D40002A430B00510700D151E70F21114004291C
:100D500000D046E74BE705008E4200D06AE6009AD5
:100D6000934200D066E667E6164A5A44002A00DC41
:100D700010E701230025984467E65D075B021C0B22
:100D8000D2080023154380E50098023D42008242CC
:100D9000BF417F423C1936190092DDE7802443466B
:100DA00024031C432403044B240B6EE5009A9A424F
:100DB000EAD30500D3E7C046FF0700003E04000069
:100DC0001E040000FF030000F0B54E464546DE4617
:100DD00057469046E0B517001A03120B05008446EB
:100DE00019480E034C0091465A00DB0F9B46360B08
:100DF000640DC90F520D844219D0824210D00120D7
:100E000094420ED14E450CD10120C44509D159451B
:100E100017D0002C05D130002843431E984100E034
:100E20000120F0BCBB46B246A946A046F0BD330047
:100E300001202B43F5D1A242F3D14B463B43F0D1E5
:100E4000E2E70020EDE7C046FF070000F0B54746A7
:100E5000CE460400180016001B031B0B2D4D4A0044
:100E6000994680B543000F03A446B0463F0B520D90
:100E7000C90F5B0DC00FAA4221D0AB4213D0002A8C
:100E800022D13C43002B02D14D462E4322D0002CD0
:100E900010D0814222D00220013908400138C0BC64
:100EA000B946B046F0BD4D462E4329D1002AF0D1B7
:100EB0003C43EED10028F2D101204042EFE73D0053
:100EC00025431DD19342EED0002BE2D14C46264360
:100ED000DFD1E0E70020002CE1D0DCE79A420ADC19
:100EE000E8DB4F45D7D80ED000204F45D7D2002998
:100EF000E2D00800D3E74342584140000138CEE732
:100F000002204042CBE7C445C5D80020C445C6D224
:100F1000EDE7C046FF070000F0B54746CE460400A7
:100F2000180016001B031B0B2C4D4A00994680B578
:100F300043000F03A446B0463F0B520DC90F5B0D93
:100F4000C00FAA420DD0AB4210D0002A27D13C439B
:100F5000002B11D14D462E430ED10020002C15D070
:100F60000EE03D00254310D1934218D14D462E434B
:100F70000BD1002A02D13C43002C0BD0814214D06B
:100F8000022001390840013800E00220C0BCB94607
:100F9000B046F0BD0028F9D101204042F6E7002B11
:100FA000ECD14C462643E9D1EAE79A4204DD4342BC
:100FB000584140000138E9E79A42EBDB4F45DFD862
:100FC00006D000204F45E1D20029E5D00800DDE73A
:100FD000C445D5D80020C445D8D2F5E7FF070000A6
:100FE000F0B557464E464546DE46E0B598460C03FA
:100FF0004B000600924687B0240B5B0DCF0F002BF1
:1010000000D15EE1DA4A934200D177E1420FE40079
:101010001443802212041443D64AC5009446634404
:101020000093002399469B46434642461E03D20F37
:101030005B0050469046360B5B0D00D122E1CC4A56
:10104000934200D164E1CB49420F8C46009963443E
:10105000F6008C46164380229C44120463461643D5
:10106000C200002000930099434601318C46494656
:101070007B4001930F2926D8BF4B890059588F46D2
:10108000434601933400150083465B46022B16D07D
:10109000032B00D105E2012B00D0CFE00022002479
:1010A0000025019B12052243DB071A43280011008B
:1010B00007B0F0BCBB46B246A946A046F0BD00242E
:1010C0000025AB4AEDE7280C2D042D0C2B00110C4C
:1010D0001204120C5343984613002F0043439946C1
:1010E0004F434F44BB4647460B003F0CBA465F4652
:1010F000434357440293B94506D99A4680235B027D
:101100009946CA44534602933B0C9B4643461B04F4
:101110003F041B0C98463B0043440493330C3604B5
:10112000360C9846330043439946434643432F00C9
:101130009A46434677435D43380C4D444519A945CB
:1011400003D980235B029946CA443F04280C3F0C14
:101150002D04ED19270C2404240C03002000504317
:101160007A4391463A0053440593030C9A464A4306
:10117000614349445144AB44894503D980235B0210
:1011800099464A4400040B0C000C0904091820007D
:101190009946434670435C437E435F43030C984645
:1011A000A41944444A440397A64204D980235B020D
:1011B000984647440397029B00045B441E00AB42E1
:1011C000AD4123049A46059B761898468E42894184
:1011D000000C504440446D424719B846934649427A
:1011E0008946C344D94498428041A845AD419345BE
:1011F0009241894589416D4240422843240C524224
:1012000049420A43039B00198018C7184B46DC0D5E
:10121000049B75021D436A1E95414B46F60D7F02E5
:1012200035435A023C431543FB0100D41CE1012124
:101230006A080D401543E207154364084F496144AD
:10124000002900DCB0E06B0709D00F222A40042AF5
:1012500005D02A1DAA42AD416D4264191500E30173
:1012600004D58021464AC90014406144454A914250
:1012700000DD24E76207ED08640249051543240BED
:101280004A0D0EE75246324300D17FE0002E00D1D6
:10129000DCE0300000F0D0FD02000B3A1D2301001D
:1012A0009B1A52460839DA408E40164352468A400D
:1012B000009B3549181A03008C46634400200093B4
:1012C000D1E6250005434AD0002C00D1B0E0200033
:1012D00000F0B2FD010002000B391D2310005B1A63
:1012E0003100350008388440D94085400C432648F9
:1012F000831A0093002399469B4695E605002543F3
:1013000026D1082200930223002491469B468BE6B7
:101310005246009B324310D1154900268C46634447
:101320004946009302231943894602209BE65B4607
:101330000197022B00D0ABE6C1E60D4A032094468C
:1013400063444A46009303231A43914652468AE671
:101350000C2200930323050091469B4664E6042378
:10136000994600230093013300249B465CE6C04667
:10137000FF07000001FCFFFF30D70008FF0300005B
:10138000FFFFFFFEFE0700000DFCFFFF49460123A3
:10139000194389460026012065E6002380240025A4
:1013A000434A019324037CE60120401A382800DDDB
:1013B00074E61F285BDD1F2223005242511ACB40E6
:1013C0001900202803D03B4A6244944025436A1EFA
:1013D00095412A000A4307210D00002415401142BF
:1013E0005BD00F2100241140042953D0111D9142DC
:1013F00092415242A4180A0023024BD50122002434
:1014000000254EE680231B031C4209D01E4207D153
:1014100033431C0343461500240B254A019340E641
:101420008022120314432403214A240B019738E637
:1014300000F002FD01000200153120321C2900DC01
:101440004BE7340008380025844050E700F0F4FCF6
:1014500003001A00153220301C2A00DC1EE7564615
:10146000083B00229E4023E7009B9C46E6E612498B
:10147000220061442E008D408A40C640691E8D4185
:1014800032432A43C4405307B6D00F2111400429E8
:10149000ACD1B1E765076402240BD20815430022E2
:1014A000FFE58022120314432403014A240BF8E5CC
:1014B000FF0700003E0400001E040000F8B5574678
:1014C0004E464546DE46E0B51E0017004A000B03B7
:1014D000520D5B0A9046420F1A43CD0FCD4C31039B
:1014E000C300944670007A0F490AFF009A46B94635
:1014F000400DF60F1143A04200D1B1E00122564049
:10150000B346B54200D188E04246121A002A00DCF8
:10151000AEE0002800D1C1E0BE48804500D151E1D5
:10152000802000040143382A00DD7BE11F2A00DD12
:10153000EEE120203E00801A0C00D640D1408740CA
:1015400062468440521A781E8741944634432743AA
:10155000DC1BA3429B4162465B42D31A99464B4631
:101560001B0200D418E14B465802430A99464B46E9
:10157000002B00D137E1484600F05EFC010008393D
:101580002023220048465B1ADA4088408C404346BC
:101590001043884500DD36E1C91A4B1C1F2B00DDC6
:1015A000EAE020222600D21A01009440DE40D84012
:1015B00000239140621E94418146984631430C437A
:1015C000630709D00F232340042B05D0231DA3421A
:1015D000A4416442A1441C004B461B0200D4DEE03F
:1015E00041468C4B0131994200D1E7E04B468A4895
:1015F000E4080340180049055B07400223434A0DF5
:10160000040B1205ED0722432A4318001100F0BC19
:10161000BB46B246A946A046F8BD4246121A002A69
:1016200052DD002800D19CE0A04500D1CAE0802016
:1016300000040143382A00DD49E11F2A00DC97E15C
:1016400010000E002038C640202A04D04020821A04
:1016500091400F43B9464C46621E944134433AE1EF
:101660000A003A4328D0B346B5422BD06B4A4244D5
:10167000002A5DD042464446821A002C00D0F5E094
:1016800065461D4300D19CE1551E012A00D1FBE1B6
:10169000604CA24200D1BDE12A00F0E008003843CE
:1016A00000D1C3E0501E012A00D1A8E1594CA2424A
:1016B00000D187E0020036E701225640B346B5422A
:1016C00000D021E7554A4244002A00D1B5E0424605
:1016D0004446821A002C00D138E14E4EB04200D16F
:1016E000DEE18026644636043443A446382A00DD11
:1016F00096E11F2A00DD24E22026B41AA2466446A1
:101700005646B440A1461C004E46D4402643340001
:101710005646B3405E1EB3411C436346D340C918CE
:10172000E419BC42BF417F42B94680468944D8E0B3
:1017300040463B4C0130204200D0B4E040460028F7
:1017400000D044E16046184300D190E108003843DE
:1017500000D0AAE16146DB0849070B436146CC088B
:1017600027E00800384361D0501E012A00D139E13A
:10177000A24227D002005DE702001F39CA401100D3
:10178000202B03D04022D31A98400443631E9C416F
:101790000023994698460C43630700D012E74B4656
:1017A0004A46E4085B072343D408424619498A4263
:1017B0000ED024035205240B520D22E70A00002408
:1017C00000231EE7DB086246520713436246D40833
:1017D0001A00224300D1FCE18022120314432403A7
:1017E0000C4A240B0DE7200000F026FB0100183105
:1017F0001F2900DCC4E6083884404346200000244A
:10180000884500DCC8E6044A5B1A104098468146C9
:10181000D6E6C046FF070000FFFF7FFF01F8FFFF8D
:10182000FE0700000F437A1E974191E66146DB08F0
:1018300049070B436146CC08B8E74046D34C01301A
:10184000204200D0A2E04046002800D001E16046DE
:10185000184300D15EE10800384300D05FE16146E3
:10186000DB0849070B436146CC08A2E7C84DA842F4
:1018700000D1CFE0802564462D042C43A446382AAD
:1018800056DC1F2A00DDD1E020251E00AD1A64467B
:10189000AB40AC40D6405D1EAB413443234364466D
:1018A000D440091B49E06046DC1B461AA342804134
:1018B0004042814630004E46801B8146000276D46D
:1018C0004B46234300D052E60024002571E73943FC
:1018D0000C00621E9441E4189C429B415B426344AD
:1018E00099464B461B0200D456E701239C46A84B61
:1018F000E044984538D04B46A648012203401800E2
:10190000630814401C43C3071C434308994657E629
:1019100010000E002038C640202A04D04020821A31
:1019200091400F43B9464F467A1E974137430FE621
:1019300062461A4313005A1E9341FC1AA742BF4144
:101940007F42CB1B99465D46804608E666461E43AD
:1019500000D1BEE0561E012A00D109E18C4CA24202
:1019600000D119E13200C1E642460024002348E6D6
:1019700020200C00801A3E0087408440D640781E0C
:101980008741D14034433C438C44A4E7804A904291
:1019900000D1E9E0DF199F429B4161445B42C918D5
:1019A000CC077F084B08994680463C43F4E6FC1A76
:1019B000A742BF4163467F42C91ACB1B99465D4689
:1019C000D5E5FF084B075D463B43CC08EEE6624693
:1019D0001A4300D082E00B003B431BD1802400253A
:1019E0002403F9E6DC199C429B41614489465B4231
:1019F00099444B461B0244D401239846CCE6DC1B99
:101A00006246A3429B41511A5B42CB1A994601237D
:101A10009846A4E5FF084B075D463B43CC08D7E654
:101A200062461A431400631E9C4179E61500644621
:101A3000203DEC40A046202A05D040256446AA1A45
:101A4000944023439A465446631E9C414346234395
:101A500073E762461A4323D00A003A4300D0A0E05D
:101A60006246DB08520713436246D408B0E60B0017
:101A70003B4300D128E7FF084B075D463B43CC08BA
:101A800097E60223984636E7FC1AA742BF41634611
:101A90007F42C91ACB1B994601235D4698465EE5F5
:101AA0004B07FF083B43CC0892E6DC1B6046A34291
:101AB000B641401A7642801B8146000260D5FC1A6E
:101AC000A742BF4163467F42C91ACB1B99465D4678
:101AD00076E5FF084B073B43CC0867E60A00DB08C6
:101AE0003A4300D16FE66246520713436246D40878
:101AF00080221203144207D0C808104204D15D4668
:101B00000400FB0849070B435A0FDB00DB085207B0
:101B100013435DE64B07FF083B43CC0849E6DC195D
:101B20009C429B41614489465B4299444B461B025F
:101B300000D431E64A46174B1A4001239146984695
:101B40002AE616006446203EF440A046202A05D02E
:101B500040266446B21A944023439A465446631E74
:101B60009C4143461C43DBE502000024002348E57A
:101B7000DC19BC42BF41614489467F42B94438E721
:101B80004B46234300D19FE606E6C046FE07000011
:101B9000FF070000FFFF7FFFFF084B073B43CC0818
:101BA00016E66246DB08520713436246D4088022D9
:101BB0001203144207D0C808104204D15D46040045
:101BC000FB0849070B435A0FDB005207DB0813439E
:101BD000FEE50023014A1C0013E5C046FF07000094
:101BE0000A0030B5134C530009030500090B00200F
:101BF0005B0DD20FA34204DD0F48834202DD0F4B81
:101C0000D01830BD8020400301430D48C01A1F2862
:101C100008DD0C48C31AD9400B005842002AF0D105
:101C20001800EEE7084CC540A446634499400B00F9
:101C30002B43F2E7FE0300001D040000FFFFFF7FBF
:101C40003304000013040000EDFBFFFF10B5041E79
:101C500010D000F0F1F80F4B1B1A0A2811DC0B22F0
:101C60002100121AD14015300A035B058440120B83
:101C70005B0D01E0002300221B0513432000190027
:101C800010BD22000B3882405B0512030024120BAA
:101C90005B0DF1E71E04000070B543004602C40F5F
:101CA000FE201B0E591C750A08420CD0E02292003F
:101CB00094466D07360B63441B053343E407234307
:101CC0002800190070BD002B14D1002D1BD0280056
:101CD00000F0B2F80A281CDC0B232E001B1ADE4091
:101CE000030015339D400E4A3603121A5205360B77
:101CF000530DE1E7002D09D08022360B1203094B6A
:101D00006D071643D8E700230026D5E70026054BCC
:101D1000D2E703000B3B9D402E000025E3E7C046C1
:101D200089030000FF07000002004B00F0B55B0DC7
:101D30000C033D4E640A400F5F1CC90F0443D500DD
:101D400037420AD039481E18FE2E16DDFF20002427
:101D5000C0052043C9070843F0BD002B06D12C4322
:101D600026D005229201540AD8B2F1E72543EDD0DE
:101D70008020C0030443FF20EAE7002E1BDD920110
:101D8000531E9A41E4006D0F22432A43530748D063
:101D90000F231340042B00D004328023DB041340B4
:101DA0003FD0701CFE2ED1D09201540AC0B2CFE7B2
:101DB00000200024CCE73200173222DB8020000410
:101DC00020431E24A41B1F2C1DDD02225242961B01
:101DD0000200F2401600202C04D0154A94466344B9
:101DE000984005432A00531E9A4132430026530768
:101DF000CED180241300E404012023402242D3D119
:101E0000B0E70023ADE70B4A94462A00E2401400F5
:101E10002A0063449A409840551EAA410243224337
:101E2000E4E733009EE7C046FE07000080FCFFFFAA
:101E3000A2FCFFFF82FCFFFF1C2101231B04984230
:101E400001D3000C10391B0A984201D3000A08394B
:101E50001B09984201D30009043902A2105C401802
:101E60007047C046040302020101010100000000A6
:101E70000000000010B5002903D1FFF7DDFF20307E
:101E800002E00800FFF7D8FF10BDC04603460B4331
:101E90007FD4002243088B4274D303098B425FD363
:101EA000030A8B4244D3030B8B4228D3030C8B428F
:101EB0000DD3FF22090212BA030C8B4202D3121275
:101EC000090265D0030B8B4219D300E0090AC30B4A
:101ED0008B4201D3CB03C01A5241830B8B4201D3F7
:101EE0008B03C01A5241430B8B4201D34B03C01AE0
:101EF0005241030B8B4201D30B03C01A5241C30A58
:101F00008B4201D3CB02C01A5241830A8B4201D3C8
:101F10008B02C01A5241430A8B4201D34B02C01AB2
:101F20005241030A8B4201D30B02C01A5241CDD257
:101F3000C3098B4201D3CB01C01A524183098B42A2
:101F400001D38B01C01A524143098B4201D34B018B
:101F5000C01A524103098B4201D30B01C01A5241EE
:101F6000C3088B4201D3CB00C01A524183088B4275
:101F700001D38B00C01A524143088B4201D34B005E
:101F8000C01A5241411A00D20146524110467047D0
:101F90005DE0CA0F00D04942031000D340425340D5
:101FA00000229C4603098B422DD3030A8B4212D395
:101FB000FC22890112BA030A8B420CD389019211C7
:101FC0008B4208D3890192118B4204D389013AD004
:101FD000921100E08909C3098B4201D3CB01C01AD9
:101FE000524183098B4201D38B01C01A52414309EC
:101FF0008B4201D34B01C01A524103098B4201D3DA
:102000000B01C01A5241C3088B4201D3CB00C01A46
:10201000524183088B4201D38B00C01A5241D9D25E
:1020200043088B4201D34B00C01A5241411A00D2DF
:102030000146634652415B10104601D34042002BDB
:1020400000D54942704763465B1000D3404201B55A
:102050000020FEF7E3F802BD0029F8D016E770472C
:10206000F0B54F464646D6460D000400C0B51F00E9
:1020700011002803620F400A10437A00520DE3005A
:102080003C039146640AFA0F4F0F6E0027439246B5
:10209000B846760DED0FC900954200D199E04C4647
:1020A000341BA446002C00DC7CE04A46002A00D108
:1020B000B8E0C54A964200D11CE180223C001204DF
:1020C0001443A0466246382A00DD61E11F2A00DD84
:1020D000CCE164462022121B444694400F00A146E6
:1020E00064469140E7404C464A1E91413C4342467B
:1020F00021436446E240801A5C1AA3429B415F423E
:10210000C71B3B0200D4D0E07F027F0A002F00D122
:10211000FFE03800FFF790FE01000839202322007D
:102120005B1A8F40DA408C401743B14200DAFFE07F
:10213000891B4B1C1F2B00DDA8E020223900D21A7E
:10214000200094409140D840621E9441DF40002618
:1021500001430C43630709D00F232340042B05D010
:10216000231DA342A44164423F191C003B0200D43A
:102170009EE0954B01369E4200D1B7E0934AE408B9
:1021800017407B0771057F0223433F0B4A0D120561
:102190003A43ED072A4318001100E0BCBA46B146A5
:1021A000A846F0BD002C4BD04C46A41BA446002EE4
:1021B00000D023E104001C4300D1AFE16246541E6D
:1021C000012A00D115E2804DAC4500D1C8E1A446FA
:1021D0001BE14A46B21A9446002A00DCACE04A46AB
:1021E000002A43D0784A964200D1AFE180223C00D9
:1021F00012041443A0466246382A67DC1F2A00DC1A
:102200005FE14746203AD7406246202A05D064461F
:102210004022121B4446944021434A1E91410C0027
:102220003C4357E03A000A4300D105E12200013A5D
:10223000012C00D182E1644CA4455BD0944641E777
:10224000634C771C274200D0C4E004001C43002EDE
:1022500000D069E1002C00D1BFE144460C4300D01E
:10226000D0E14207DB081343C00829E03A000A43E3
:1022700000D170E162466446013A012C00D1E0E0F1
:10228000514CA44500D161E19446B4E73A001F39AE
:10229000CA401100202B03D04022D31A9F403C4358
:1022A000631E9C41002700260C43630700D053E7C0
:1022B000B446E4087B072343F808434A94451DD0FD
:1022C0006246070352053F0B520D60E744460C433C
:1022D000621E9441E4189C429B415F423F183B02BE
:1022E000E3D5394B01369E4200D0B5E032000027DD
:1022F00000234CE74207DB081343C0081A000243DF
:1023000000D1E1E180273F0307433F032E4A3F0B03
:102310003DE72000FFF790FD010018311F2900DC88
:10232000FCE60838844027000024B14200DBFFE6C9
:10233000264A761A17400DE7002A2FD04A46921BEC
:102340009446002E00D1ADE01F4A914500D10FE127
:102350008022120410436246382A00DD0FE11F2A52
:1023600000DD80E1644620221E00121B6746040047
:1023700093409440FE405A1E9341F84034431C431E
:10238000804464188C42BF417F424E464744A6E7D2
:1023900042460A4311004A1E9141ADE60C4C721CA4
:1023A000224200D0A1E002001A43002E00D0FAE041
:1023B000002A00D145E13A000A4300D046E1420735
:1023C000DB081343C0087BE7FF070000FFFF7FFF28
:1023D000FE07000047465C1AC21BA342BF417F4272
:1023E000B94617004A46BF1A3A0200D58DE02300CD
:1023F0003B4300D08AE60020002561E7B44CA145AC
:1024000000D1ADE08024240420436446382C3DDC18
:1024100062461F2C00DDB7E020251E002D1B0400A6
:10242000AB40AC40D640D04042465D1EAB41344349
:10243000121A904623432CE04207DB081343C008DE
:102440003BE75C189C429B4140445B42C718012615
:102450003B0200D429E702269E4A63081740012266
:1024600014401C43FB071C437F0873E64446203A94
:10247000D4406246202A05D067464022D21B4746F8
:10248000974039434A1E9141214335E60343581E84
:102490008341CC1AA142BF4143467F4255464E4636
:1024A000DF1B2EE602001A4300D1BDE062466446FF
:1024B000013A012C00D1E5E0854CA44558D0944662
:1024C00049E764462022121B444694400F00A1466F
:1024D00064469140E7404C464A1E91413C43424687
:1024E0000C436146CA408018F4E6794CA24200D100
:1024F000FDE6591899429B4140445F42C719FC07C9
:10250000490816000C437F08CFE6CC1AA142BF4110
:1025100043467F42181A5546C71BF7E5C9087B0793
:1025200055460B43F808C8E6002C00D081E043462E
:102530000B4315D1802000250003E3E65C1AA3427B
:102540009B41C71B5B420126FF1ADAE54207DB0805
:102550001343C008D2E64207DB081343C008ACE6C9
:1025600043464246C9085B0755460B43D008C5E6BB
:10257000434642465B07C9080B43D008BEE6034307
:102580001C00631E9C41FCE60200203CE24014005B
:102590006246202A03D04025AD1AA8400343581EA6
:1025A0008341234375E7002AE2D03A000A43CDD0A5
:1025B0004207DB0813438022C0081203104206D0F2
:1025C000FC08144203D12000CB087A0713435A0FAA
:1025D000DB005207DB08134390E643460B4300D170
:1025E00009E743464246C9085B0755460B43D008F6
:1025F00066E6CC1AA14289413F1A49425546012656
:102600007F1A7EE542465C1A871AA34292415242E3
:10261000BF1A3A023DD5CC1AA142894143464942EC
:102620001F1A55467F1A95E57B07C9080B43F80822
:1026300043E64446DB080C4330D142071343C0084D
:102640005CE67B07C9080B43F80839E65C189C4236
:102650009B4140445B42C7183B0200D425E61D4B1A
:1026600001261F4021E60400203AD4406246202A79
:1026700004D040226646921B904003435A1E934169
:102680001C437EE65C188C4289414044494247180D
:10269000DDE623003B4300D1ADE606E644072343D5
:1026A0008024C0082403204208D04246D60826428F
:1026B00004D155463000CB0851070B435A0FDB00BD
:1026C000DB085207134319E60023014A1F005EE5A9
:1026D000FF070000FFFF7FFF70B505000C481C03DB
:1026E00016005B000A034900120B490D240B5B0D19
:1026F000814208D0064A0020934203D12000304393
:10270000431E984170BD01202A43FBD1F2E7C04629
:10271000FF07000070B5002816D0C317C5185D402C
:10272000C40F2800FFF788FB114A121A0A2816DC8A
:1027300003002E0015339E400B23181AC540520586
:102740002D032D0B530D03E000240023002500264C
:102750001B052B43E40723433000190070BD0B38E1
:10276000854052052D0300262D0B530DF0E7C04682
:102770001E04000000B583B0064B18600A230093C6
:10278000093B054A462102F0FDFD0A2000F02EFB20
:1027900003B000BDDC0900200000002000B583B0BC
:1027A000054B18680A230093073B044A472102F0AF
:1027B000A3FE03B000BDC046DC090020E0090020F4
:1027C00010B5074A13781B0250781843FFF73EFAFA
:1027D000044A054BFEF702F8FDF7AEFD10BDC046FA
:1027E000E0090020333333333333F33F00B583B094
:1027F00008220021684604F083FD1B481B4B036040
:102800000023C36380221206426083600722826332
:10281000063A0261C360202142540131435483626D
:10282000C221FF3141629639FF394254033242617D
:10283000036383614363C36101F02EFF00280CD161
:102840000B4B009380235B0101936946064802F01D
:10285000BBF8002804D103B000BD00F0C9FCEFE7CD
:1028600000F0C6FCF7E7C046E40900200024014060
:102870000002002410B586B004001422002101A833
:1028800004F03EFD1A4B22689A4201D006B010BDFA
:10289000184B596B802292000A435A63D96A02226C
:1028A0001143D962DB6A13400093009B019203231A
:1028B000029301A9104802F085FA1048104B0360FA
:1028C000002343608360C3608022026180324261E2
:1028D0008022D2008261C361036202F043F90028C2
:1028E00003D1064BE3649C62D0E700F081FCF8E77B
:1028F000002401400010024000040050400A002063
:1029000008000240014B18607047C046880A00204A
:1029100010B5034B18680122024901F0B3FF10BD46
:10292000880A00208C0A002010B5084B1888FDF793
:1029300013FFE6218905FDF7E9FDFFF7ADF9044A2C
:10294000044BFEF74DFBFFF7EFF910BD8C0A00209A
:102950006666666666660A4070B5FFF79DF9040014
:102960000D00D74AD74BFDF78FFC002800D0E9E1D6
:10297000D54AD64B20002900FDF786FC002808D058
:10298000CF4AD04B20002900FDF760FC002800D082
:10299000DAE1CF4ACF4B20002900FDF775FC002873
:1029A00008D0C94AC94B20002900FDF74FFC002878
:1029B00000D0CBE1C84AC94B20002900FDF764FCD8
:1029C000002808D0C24AC34B20002900FDF73EFC76
:1029D000002800D0BCE1C24AC24B20002900FDF70C
:1029E00053FC002808D0BC4ABC4B20002900FDF74E
:1029F0002DFC002800D0ADE1BB4ABC4B20002900D3
:102A0000FDF742FC002808D0B54AB64B200029004B
:102A1000FDF71CFC002800D09EE1B54AB54B200014
:102A20002900FDF731FC002808D0AF4AAF4B200049
:102A30002900FDF70BFC002800D08FE1A84AA94B24
:102A400020002900FDF720FC002808D0A24AA34B53
:102A500020002900FDF7FAFB002800D080E1A04A01
:102A6000A04B20002900FDF70FFC002808D09A4A4F
:102A70009A4B20002900FDF7E9FB002800D071E106
:102A8000974A984B20002900FDF7FEFB002808D04C
:102A9000914A924B20002900FDF7D8FB002800D076
:102AA00062E18F4A8F4B20002900FDF7EDFB0028E3
:102AB00008D0894A894B20002900FDF7C7FB002870
:102AC00000D053E1864A874B20002900FDF7DCFB4C
:102AD000002808D0804A814B20002900FDF7B6FB72
:102AE000002800D044E17E4A7E4B20002900FDF7FB
:102AF000CBFB002808D0784A784B20002900FDF74E
:102B0000A5FB002800D035E1754A764B200029004E
:102B1000FDF7BAFB002808D06F4A704B200029004F
:102B2000FDF794FB002800D026E16D4A6D4B200094
:102B30002900FDF7A9FB002808D0674A674B200051
:102B40002900FDF783FB002800D017E1644A654B9C
:102B500020002900FDF798FB002808D05E4A5F4B53
:102B600020002900FDF772FB002800D008E15C4A34
:102B70005C4B20002900FDF787FB002808D0564A4F
:102B8000564B20002900FDF761FB002800D0F9E03A
:102B9000534A544B20002900FDF776FB002808D04B
:102BA0004D4A4E4B20002900FDF750FB002800D075
:102BB000EAE04B4A4B4B20002900FDF765FB00285B
:102BC00008D0454A454B20002900FDF73FFB00286F
:102BD00000D0DBE0424A434B20002900FDF754FBC4
:102BE000002808D03C4A3D4B20002900FDF72EFB71
:102BF000002800D0CCE03A4A3A4B20002900FDF7EB
:102C000043FB002808D0344A344B20002900FDF74C
:102C10001DFB002800D0BDE0314A324B20002900C6
:102C2000FDF732FB002808D02B4A2C4B200029004E
:102C3000FDF70CFB002800D0AEE0294A294B20000C
:102C40002900FDF721FB002808D0234A234B200050
:102C50002900FDF7FBFA002800D09FE0204A214B15
:102C600020002900FDF710FB002808D01A4A1B4B52
:102C700020002900FDF7EAFA002800D090E0184A69
:102C8000184B20002900FDF7FFFA002808D0124A4F
:102C9000124B20002900FDF7D9FA002800D081E06E
:102CA0000F4A104B20002900FDF7EEFA002825D02E
:102CB000094A0A4B20002900FDF7C8FA1CE0C0466B
:102CC000A4703D0AD7A310409A99999999991040F8
:102CD0008FC2F5285C8F10407B14AE47E17A10401C
:102CE000666666666666104052B81E85EB511040F7
:102CF0003333333333331040002855D12D4A2E4B14
:102D000020002900FDF7C0FA002807D02B4A2C4BE1
:102D100020002900FDF79AFA002847D1254A264BC2
:102D200020002900FDF7B0FA002841D0234A244BA7
:102D300020002900FDF78AFA002801D0012002E0D6
:102D4000323000E0642070BD6320FCE76120FAE7C8
:102D50005F20F8E75C20F6E75A20F4E75720F2E717
:102D60005520F0E75020EEE74B20ECE74620EAE75D
:102D70004120E8E73C20E6E73720E4E73220E2E7BD
:102D80002D20E0E72A20DEE72320DCE71E20DAE71B
:102D90001920D8E71420D6E70F20D4E70C20D2E77B
:102DA0000A20D0E70820CEE70520CCE70320CAE7B9
:102DB0003220C8E766666666666610407B14AE47DA
:102DC000E17A1040084B00221A6040010138586037
:102DD0009A6005321A60044B1B68DB03FBD5024B7B
:102DE00000221A607047C04610E000E00BE00A4B7A
:102DF00000221A60094959609A6005321A60064B30
:102E00001B68DB03FBD503000138002BEFD1024B1D
:102E100000221A607047C04610E000E0FF7C00000E
:102E200010B5094C00220421200002F0A0F8142063
:102E3000FFF7DCFF01220421200002F098F828208F
:102E4000FFF7C0FF10BDC0460004005010B50024BD
:102E50000421134802F084F8002807D0632C05D819
:102E60000134E4B20120FFF7ADFFF1E7632C12D883
:102E7000002404E00134E4B20120FFF7A3FF0421A1
:102E8000074802F06DF8002801D1632CF2D9632CB9
:102E900003D8002010BD0120FCE70120FAE7C0465E
:102EA0000004005070B5002504E00135EDB20120AA
:102EB000FFF788FF0421104802F052F8041E08D0E2
:102EC000632DF2D9002404E00134E4B20120FFF7BD
:102ED00079FF0421084802F043F8002801D1632C4F
:102EE000F2D92820FFF76EFF0421034802F038F8DA
:102EF000002800D0012070BD0004005070B50020F3
:102F0000002507E04000C4B2FFF7CCFF2043C0B269
:102F10000135EDB2072DF5D970BD70B50500FFF78D
:102F20007FFFFFF793FF041E07D0012012E02E1948
:102F3000FFF7E4FF30700134E4B2042CF7D92B78AA
:102F40006A789B18AA789B18EA789B182A7993428A
:102F500001D1002070BD0220FCE7000000B583B065
:102F6000114A116B012319431163126B1340019332
:102F7000019B00220021092001F084FD092001F0BD
:102F8000B1FD002200210A2001F07CFD0A2001F0A1
:102F9000A9FD002200210B2001F074FD0B2001F09F
:102FA000A1FD03B000BDC04600100240F0B5CE4602
:102FB000474680B58BB01422002105A804F0A0F983
:102FC0002C4BDA6A04263243DA62DA6A3240009223
:102FD000009AD96A80221143D962D96A0A400192C3
:102FE000019ADA6A02273A43DA62DA6A3A400292CE
:102FF000029ADA6A01242243DA62DA6A22400392F0
:10300000039AD96A08221143D962DB6A1A400492F2
:10301000049B194D01220421280001F0A8FFC023C0
:103020005B009946154B984600224946180001F06E
:103030009EFF0596112306930794089705A928007B
:1030400001F0C0FE4B4605930694002407940894B3
:1030500005A9404601F0B6FEC0239B0005930694E7
:10306000079405A9280001F0ADFE0BB0C0BCB9461D
:10307000B046F0BD001002400004005000080050AF
:1030800010B51448144B0360144B43600023836055
:103090000122C260036143618361C361036202F084
:1030A0000BF900280CD100210A4802F0DFFA0028B1
:1030B00009D10021074802F005FB002806D110BD08
:1030C00000F096F8EFE700F093F8F2E700F090F8E0
:1030D000F5E7C046900A0020005400400B020000B3
:1030E00010B586B004001422002101A804F008F9EC
:1030F0002268104B9A4201D006B010BD0E4CE26A15
:1031000002231A43E262E26A13400093009BC02349
:103110000193AE3B0293113B039303220492059368
:1031200001A9064801F04EFEA26B80239B031343C6
:10313000A363E1E700540040001002400004005087
:1031400010B501F041FA0121002002F0E5FA00F08B
:1031500051F801F041FA10BD10B503681A4A9342C4
:1031600003D01A4A934228D010BD194B1B78002B6C
:1031700017D0184B1B78184A1178184AD154127876
:10318000552A07D04F2A05D01F2A03D0114B002201
:103190001A7006E0124A1278934208D001330D4AA1
:1031A000137001220C490F4803F0CEFFDCE7002327
:1031B000084A1370064A1370F3E7142307220A49DA
:1031C0000A4803F030FECFE7004C004000380140D1
:1031D0003C0E0020C20E0020E40A0020400E002019
:1031E000C30E00202C0D002070D70008A40C002076
:1031F00072B6FEE700B59DB0382200210EA804F09B
:103200007FF81422002109A804F07AF82422002172
:10321000684604F075F822490B68224A1A40802358
:103220001B0113430B6009230E9380235B020F9352
:1032300001221392013218921993C0231B031A938F
:103240008023DB031B930EA802F0FEFA002820D196
:103250000F2309930C3B0A9300230B93A023DB005D
:103260000C93013BFF3B0D93012109A802F0B8FD2F
:10327000002810D129230093002302930593802373
:103280009B020193684602F0BDFE002805D11DB0E7
:1032900000BDFFF7ADFFFFF7ABFFFFF7A9FFC0468B
:1032A00000700040FFE7FFFFF0B589B003AA2D4B87
:1032B00013CB13C211001A680A601B790B7100232B
:1032C000019301AA137101F059F9FFF793FFFFF77A
:1032D0006DFEFFF743FEFFF789FAFFF7D1FE00F01E
:1032E00031F900F04DF900F053F800F067F900F003
:1032F000D9FF1D48FFF73EFA1C48FFF703FBFFF715
:1033000007FBFFF711FB1A4B1860FEF7C5FC020024
:103310000B00184C1849200004F046F8174E82B2F2
:10332000174D33002100280003F07DFD154B2200CE
:1033300083CB83C21B88138033000D222100280019
:1033400003F071FDFFF7FCFE01F084F80E4B1B78D3
:10335000002BF7D001F02AF880210C4801F00DFE77
:10336000F0E7C0469CD70008900A0020E40900203E
:10337000E80A0020EC0A002078D70008FFFF0000D0
:10338000A40C00208CD700083D0E0020000800503F
:1033900010B50F480F4B0360002343602422826066
:1033A0000D4AC260036143618361C36102F078FF2B
:1033B000002807D104220421054802F0C7FF002895
:1033C00003D110BDFFF714FFF4E7FFF711FFF8E793
:1033D000EC0B002000280040E703000010B5026855
:1033E000094B9A4200D010BD084A116D8023DB02C0
:1033F0000B43136500220021022001F043FB022051
:1034000001F070FBEFE7C0460028004000100240CA
:10341000054B5A6B01210A435A63996B802252056E
:103420000A439A637047C04600100240FEE7FEE779
:103430007047704710B501F0B5F810BD10B50248DF
:1034400003F016F810BDC046EC0B002010B5024882
:1034500001F05AFC10BDC046400A002010B50248D9
:1034600001F052FC10BDC046140C002010B50248FB
:1034700001F04AFC10BDC0465C0C002010B50348AA
:1034800003F066F8024803F063F810BD2C0D00202D
:10349000B40D00200120704710B503F0B7FE1623CD
:1034A00003600120404210BD10B501214942FFF7E1
:1034B000F3FFFEE770B50C001600002504E000E005
:1034C00000BF207001350134B542F8DB300070BD1B
:1034D00070B51600002405E04D1C087800E000BF20
:1034E00001342900B442F7DB300070BD10B5030091
:1034F0000B4A1268002A08D0094A1068C3186A46A5
:10350000934206D8064A136010BD054A054911606A
:10351000F2E703F07BFE0C23036001204042F3E757
:10352000100C0020480F00200120404270478023EB
:103530009B014B60002070470120704700207047BE
:103540007047000010B50C480C4B0360E1235B0290
:10355000436000238360C36003610C224261836186
:10356000C3610362436203F03FFD002800D110BD38
:10357000FFF73EFEFBE7C046A40C002000380140E8
:1035800010B50C480C4B0360E1235B024360002341
:103590008360C36003610C2242618361C361036283
:1035A000436203F021FD002800D110BDFFF720FE8B
:1035B000FBE7C0462C0D0020004C004010B50C4825
:1035C0000C4B0360E1235B02436000238360C36014
:1035D00003610C2242618361C3610362436203F0B1
:1035E00003FD002800D110BDFFF702FEFBE7C04637
:1035F000B40D002000500040F0B58BB00400142240
:10360000002105A803F07CFE23685B4A934207D0A3
:103610005A4A934221D05A4A93425DD00BB0F0BD32
:10362000584B596B8022D2010A435A63D96A01224E
:103630001143D962DB6A1A400192019BC023DB006F
:103640000593022306930133089301330993A020C5
:1036500005A9C00501F0B6FBE0E74A4B996B802253
:1036600012030A439A63D96A04221143D962DB6ABE
:103670001A400292029BC0231B010593022306936A
:10368000013308930333099305A93F4801F09AFBDE
:103690003E483F4B03600C234360043383600023A8
:1036A000C3608022026143618361C36180239B0107
:1036B000036201F057FA00280BD1344B23679C6258
:1036C000002202210E2001F0DDF90E2001F00AFA9D
:1036D000A4E7FFF78DFDF0E72A4B996B8022520398
:1036E0000A439A63DA6A04263243DA62DA6A3240BB
:1036F0000392039AD96A08221143D962DB6A1A40FD
:103700000492049B80235B01059302250695032701
:103710000897099505A91C4801F054FB05960695E4
:103720000025079508970623099305A9194801F074
:1037300049FB1948194B03600D2343600333836031
:10374000C5607033036145618561C56180239B015C
:10375000036201F007FA00280BD10F4B23679C622C
:10376000002202210E2001F08DF90E2001F0BAF99D
:1037700054E7FFF73DFDF0E700380140004C004002
:10378000005000400010024000080050140C0020BF
:1037900030000240000C00505C0C00208000024011
:1037A00010B504000020002304E09A1C8A5C5040FD
:1037B0000133DBB2A342F8D310BD000070B50400A2
:1037C000074803681A680125AA431A60026813684B
:1037D0002B4313600A00034B210003F024FB70BD50
:1037E0002C0D0020E703000010B582B0214B1A68B1
:1037F00000921B796A4613711F4A3523D35C002B54
:1038000002D1012002B010BD05216846FFF7D6FFA6
:103810001A4B00221A701A4B04321A70194B033AD1
:103820001A701949194803F08FFC0024154B1878B9
:10383000002816D00120FFF7D9FA0134A4B2FA23E8
:10384000DB009C42F2D9124C14221249200003F0F2
:1038500005FD114B13222100104803F0E4FA00206B
:10386000D0E70F4B00221A701B79002BCAD1012020
:10387000C8E7C046B0D50008C40E0020C20E002024
:10388000C30E00203C0E0020E40A00202C0D002076
:10389000EC0A0020D4D70008FFFF0000A40C002091
:1038A000400E002010B584B001AC224B1033220032
:1038B00003CB03C21B78137021000620FFF770FFB3
:1038C00020721D4B00221A701C4B06321A701C4BC2
:1038D000053A1A7009212000FFF770FF01221949EB
:1038E000194803F031FC0024154B1878002816D035
:1038F0000120FFF77BFA0134A4B2FA23DB009C42DB
:10390000F2D9124C14221249200003F0A7FC114BEB
:1039100013222100104803F086FA002005E00F4B27
:1039200000221A70DB78002B01D004B010BD0130EA
:10393000FBE7C046B0D50008C20E0020C30E002031
:103940003C0E0020E40A00202C0D0020EC0A002090
:10395000D4D70008FFFF0000A40C0020400E002078
:1039600010B582B0284B1A001C32DB690093137922
:103970006A461371254B00221A70254B0E321A70BD
:10398000244B0D3A1A7005216846FFF717FF0122F4
:103990002149224803F0D8FB00241E4B1878002848
:1039A00016D00120FFF722FA0134A4B2FA23DB007B
:1039B0009C42F2D91A4C20221A49200003F04EFCF6
:1039C000194B1F222100194803F02DFA002007E0AF
:1039D000174B00221A701B79FF2B03D0002B0AD043
:1039E00002B010BD134B353201219954104A52795F
:1039F0001A700130F4E70F4B3522002199540C4A1C
:103A000052791A700120EBE7B0D50008C20E0020F1
:103A1000C30E00203C0E0020E40A00202C0D0020E4
:103A2000EC0A0020E8D70008FFFF0000A40C0020EB
:103A3000400E0020C40E002030B585B001AA264BF0
:103A4000243303CB03C21B781370244A3523D55C7F
:103A5000002D02D0012005B030BD1300927A01ACD8
:103A60006271DA7AA2715B7AE37121000620FFF7B6
:103A700097FE20721A4B00221A701A4B06321A70E7
:103A8000194B053A1A7009212000FFF797FE012211
:103A90001649174803F058FB0024134B18780028E8
:103AA0000AD00120FFF7A2F90134A4B2FA23DB0007
:103AB0009C42F2D92800CEE70E4B00221A70DB7828
:103AC000002BC8D16430FFF791F9FFF749FF0028B8
:103AD000FBD00120BFE7C046B0D50008C40E0020CF
:103AE000C20E0020C30E00203C0E0020E40A00207D
:103AF0002C0D0020400E002010B582B0464B1A005D
:103B00001C32DB69009313796A461371434A3523EB
:103B1000D35C002B2DD1424B2B221A70414B00223B
:103B20001A70414B01321A7005216846FFF746FEB4
:103B300001223E493E4803F007FB00243A4B187827
:103B400000281AD00120FFF751F90134A4B2FA235A
:103B5000DB009C42F2D9374C1A223749200003F08F
:103B60007DFB364B19222100354803F05CF900201B
:103B70000BE02B4B0E221A70D0E7324B00221A704A
:103B80001B79FF2B03D0002B15D002B010BD234BA7
:103B90003532012199542B4A52791A70072808D8D6
:103BA000831D284AD25C1D4B1B185A700130C0B2CD
:103BB000F4E70120E9E7194A352100205054214952
:103BC000497911701A000BE0911D1E48445C13499D
:103BD00089184C7014001334005D08740132D2B29D
:103BE000072AF1D91749887B0C4A5072C87B90721A
:103BF000087CD072487C1073897C517308E01A00ED
:103C00001B321049895C054AD21811760133DBB2A8
:103C10000F2BF4D90120B8E7B0D50008C40E00205E
:103C2000C30E0020C20E00203C0E0020E40A00203B
:103C30002C0D0020EC0A002008D80008FFFF00002F
:103C4000A40C0020400E002010B582B06846254B21
:103C50007C33020012CB12C2234B00221A700123C4
:103C6000224A1370224A13700821FFF7A7FD012290
:103C70002049214803F068FA00241D4B18780028D9
:103C800016D00120FFF7B2F80134A4B2FA23DB000A
:103C90009C42F2D9194C22221949200003F0DEFA85
:103CA000184B21222100184803F0BDF8002005E040
:103CB000164B1B78552B03D04F2B09D002B010BDEB
:103CC0000023134934228B54104A13700130F5E756
:103CD0000F4A1B3B0121D1540C4B00221A700120CA
:103CE000ECE7C046B0D50008C20E0020C30E00208D
:103CF0003C0E0020E40A00202C0D0020EC0A0020DD
:103D000024D80008FFFF0000A40C0020400E002073
:103D1000C40E002010B582B02B4B5A6800921B894C
:103D20006A469380107169460320FFF739FD6B46A0
:103D30005871264A3523D35C002B02D1012002B0F2
:103D400010BD06216846FFF739FD214B00221A708D
:103D5000204B05321A70204B043A1A701F49204834
:103D600003F0F2F900241C4B1878002816D001202B
:103D7000FFF73CF80134A4B2FA23DB009C42F2D9ED
:103D8000184C1A221849200003F068FA174B192220
:103D90002100174803F047F80020D0E7154B002218
:103DA0001A701C79002CCAD16430FFF71FF8FFF796
:103DB000D7FD0028FBD0054B1B78022B01D020003B
:103DC000BDE70120BBE7C04630D60008C40E002086
:103DD000C20E0020C30E00203C0E0020E40A00208A
:103DE0002C0D0020EC0A002048D80008FFFF00003E
:103DF000A40C0020400E002070B582B06C46244B0D
:103E00002433220060CB60C26071A17121000520C3
:103E1000FFF7C6FCE0711F4B00221A701E4B0532E3
:103E20001A701E4B043A1A7008212000FFF7C6FCD6
:103E300001221B491B4803F087F90024174B18780F
:103E4000002816D00120FEF7D1FF0134A4B2FA23D6
:103E5000DB009C42F2D9144C18221449200003F0D4
:103E6000FDF9134B17222100124802F0DCFF00205D
:103E700007E0114B00221A701B79002B03D0B82BDE
:103E800003D002B070BD0120FBE70120F9E7C04676
:103E900030D60008C20E0020C30E00203C0E0020C9
:103EA000E40A00202C0D0020EC0A002064D8000851
:103EB000FFFF0000A40C0020400E002070B584B06D
:103EC00001AC234B4033220060CB60C21B881380BF
:103ED000E071217221000720FFF762FC60721D4B28
:103EE00000221A701C4B05321A701C4B043A1A70CF
:103EF0000A212000FFF762FC01221949194803F04A
:103F000023F90024154B1878002816D00120FEF75D
:103F10006DFF0134A4B2FA23DB009C42F2D9124CAB
:103F200026221249200003F099F9114B2522210085
:103F3000104802F078FF002005E00F4B00221A70B5
:103F40001B79002B01D004B070BD0130FBE7C046E7
:103F500030D60008C20E0020C30E00203C0E002008
:103F6000E40A00202C0D0020EC0A00207CD8000878
:103F7000FFFF0000A40C0020400E002030B585B0EB
:103F800001AC224B4C33220022CB22C21B7813708F
:103F9000E07121000620FFF703FC20721C4B002279
:103FA0001A701C4B05321A701B4B043A1A70092107
:103FB0002000FFF703FC01221849194803F0C4F858
:103FC0000024154B1878002816D00120FEF70EFFAC
:103FD0000134A4B2FA23DB009C42F2D9114C1E2218
:103FE0001149200003F03AF9104B1D22210010481E
:103FF00002F019FF002005E00E4B00221A701B7919
:10400000002B01D005B030BD0130FBE730D60008F1
:10401000C20E0020C30E00203C0E0020E40A002047
:104020002C0D0020EC0A0020A4D80008FFFF00009F
:10403000A40C0020400E002030B585B001AA224B10
:10404000583303CB03C21B781370204B00221A7025
:104050001F4B05321A701F4B043A1A701E4A352343
:10406000D55C002D02D0012005B030BD092101A88A
:10407000FFF7A4FB01221949194803F065F8002451
:10408000144B1878002816D00120FEF7AFFE01343B
:10409000A4B2FA23DB009C42F2D9124C222212492C
:1040A000200003F0DBF8114B21222100104802F020
:1040B000BAFE2800D8E70F4B00221A701B79002B9C
:1040C000D2D10120D0E7C04630D60008C20E002071
:1040D000C30E00203C0E0020C40E0020E40A002085
:1040E0002C0D0020EC0A0020C4D80008FFFF0000BF
:1040F000A40C0020400E002030B585B001AC224B4E
:104100006433220022CB22C21B781370E07121009D
:104110000620FFF745FB20721C4B00221A701C4B37
:1041200005321A701B4B043A1A7009212000FFF760
:1041300045FB01221849194803F006F80024154BE5
:104140001878002816D00120FEF750FE0134A4B2E2
:10415000FA23DB009C42F2D9114C1B2211492000AA
:1041600003F07CF8104B1A222100104802F05BFE8D
:10417000002005E00E4B00221A701B79002B01D0A5
:1041800005B030BD0130FBE730D60008C20E00207C
:10419000C30E00203C0E0020E40A00202C0D00205D
:1041A000EC0A0020E8D80008FFFF0000A40C002063
:1041B000400E002010B582B0234A13007033126FF6
:1041C00000929A8869468A809B798B714871042095
:1041D000FFF7E6FA6B4698711C4B00221A701C4BD5
:1041E00006321A701B4B053A1A7007216846FFF712
:1041F000E5FA01221849194802F0A6FF0024154BE0
:104200001878002816D00120FEF7F0FD0134A4B282
:10421000FA23DB009C42F2D9114C182211492000EC
:1042200003F01CF8104B17222100104802F0FBFD90
:10423000002005E00E4B00221A701B79002B01D0E4
:1042400002B010BD0130FBE730D60008C20E0020DE
:10425000C30E00203C0E0020E40A00202C0D00209C
:10426000EC0A002004D90008FFFF0000A40C002085
:10427000400E002000B583B001AB084A11881980B8
:1042800092789A70064A3423D35C012B01D003B094
:1042900000BD032101A8FFF791FAF8E71CD9000837
:1042A000C40E002010B53E4B01221A70FFF7CCFC63
:1042B0000028FBD06420FEF799FDFFF7DBFFFA2012
:1042C0008000FEF793FDFFF74BFB0028FBD0642036
:1042D000FEF78CFDFFF710FC0028FBD06420FEF7F2
:1042E00085FD304A3523D35C002B02D15389552BF1
:1042F00050D0FFF7A1FB0028FBD0FA20C000FEF74A
:1043000075FD0220FFF706FD0028FAD06420FEF7B5
:104310006DFD1220FFF74EFF0028FAD06420FEF753
:1043200065FD0020FFF7E8FE0028FAD06420FEF7C4
:104330005DFDFFF7B7FA0028FBD0FA20C000FEF7BA
:1043400055FDFFF751FA0028FBD01748FEF74EFD48
:10435000FFF706FB0028FBD06420FEF747FD222173
:104360001120FFF749FD0028F9D06420FEF73EFD3B
:1043700022211120FFF7A2FD0028F9D06420FEF7CA
:1043800035FDFF20FFF7FAFD0028FAD06420FEF784
:104390002DFD10BDFFF750FE0028FBD0F9E7C04609
:1043A0003D0E0020C40E002088130000F0B5CE465C
:1043B000474680B583B0002700976B461F71FEF714
:1043C000A7FAFEF7B1FA81466846FEF7A6FDFEF7AA
:1043D000E5F91D4C4B25257065705526A670E670D5
:1043E0000323984623714846FDF756FC174A184B9D
:1043F000FCF7F6FDFDF798FCFEF7AEFA6071434658
:10440000A371FC33E3716B469B7823726B46DB78B8
:104410006372FE23A3726B461B78E3726B465B7874
:104420002373FD236373FEF7CBF9A073E773267440
:104430006674A574E57414212000FFF7BFF903B07A
:10444000C0BCB946B046F0BDA40E002096B20C71B7
:10445000AC8B074030B583B0294B1A6800921B79AA
:104460006A461371274B00221A70274B05321A70C7
:10447000264B043A1A7005216846FFF79FF901227E
:104480002349244802F060FE0024204B1D78002DB3
:104490000AD00120FEF7AAFC0134A4B2FA23DB0003
:1044A0009C42F2D900250BE01B4CFF23082221007F
:1044B0001A4802F0B8FC002323702379032B02D0A2
:1044C000280003B030BD144B5B79002B03D0012BC7
:1044D0000BD00125F4E7124B00221A70FF2316328D
:1044E00010490E4802F09FFCF3E70D4B01221A70B1
:1044F000FF2315320C49094802F095FCE9E7C04654
:1045000050D90008C20E0020C30E00203C0E00202F
:10451000E40A00202C0D0020400E0020A40C0020F6
:104520003D0E002020D9000838D9000810B504003D
:104530000F4B1978FA208000FBF7E6FD01000D4BC8
:104540001868FBF7E1FD00F0D9FA00280DD1032C23
:1045500001D901200AE0013000222100404200F090
:1045600091FA054B1C60002000E0012010BDC04600
:1045700008000020040000200C00002010B5084AAC
:10458000136840210B4313600020FFF7CFFF041E88
:1045900002D00124200010BDFEF73AFFFAE7C04622
:1045A00000200240034A1168034B1B785B1813601C
:1045B0007047C046FC0E002008000020014B186820
:1045C0007047C046FC0E0020024A136802218B434C
:1045D0001360704710E000E0024A136802210B43A9
:1045E0001360704710E000E010B582B00400084B83
:1045F00018680849FBF788FD4443019402E0019BD9
:10460000013B0193019B002BF9D102B010BDC046C4
:104610000400002040420F0070B504000268916859
:1046200003230B40012B0DD091681A4B19420ED079
:10463000636D102213436365A36D0F3A1343A365A3
:10464000012070BD1368DB07EED50020F9E7936801
:1046500001210B4393600120FFF7C6FFFFF7AEFF78
:10466000050023681B68DB0712D4FFF7A7FF401B78
:104670000A28F6D923681B68DB07F2D4636D102281
:1046800013436365A36D0F3A1343A3650120D8E775
:104690000020D6E71700008070B5041E00D1E2E0CC
:1046A000436D002B30D0636DDB0633D422689168F4
:1046B000042005000D4008422CD1616D6B4B194060
:1046C0000633FF3319436165916801330B40012BB9
:1046D00029D06368C02109068B4228D08021C905F2
:1046E0008B4224D0802109068B4220D013699B0085
:1046F0009B0813615E4B1A685E490A401A601A688B
:1047000061680A431A601BE0836550228354FEF7F8
:10471000B1F8C8E7636D102213436365502300228C
:10472000E254012070BD1368DB0713D4D1E713698D
:104730009B009B0813612268136961680B43136136
:104740002268D36818218B43D3602268D368A1689C
:104750000B43D360464A136847490B401360136804
:10476000616B49060B43136023689A68D20004D436
:104770009968802252050A439A602368DA683F49A3
:104780000A40DA602068C268E368216902292DD0F6
:104790002B432021615C49030B432C21615C4900C0
:1047A0000B43216B0B43A16989030B43E169C903E7
:1047B0000B431343C360636AC222FF32934205D0A6
:1047C0002168CA68A06A03431343CB602123E35CDA
:1047D000012B0DD0E36B012B1ED023681A69D20781
:1047E0002DD51A6901218A431A6128E00425CFE7F3
:1047F0001F33E35C002B06D12268D16880235B0263
:104800000B43D360E6E7636D202213436365A36D1A
:104810001F3A1343A365DDE72268136918490B406B
:10482000136121680A69236C606C0343A06C034325
:1048300013430B612268136901210B431361226842
:10484000536907218B43536122685369A16B0B4362
:1048500053610023A365636D03229343023A13431C
:10486000636500205EE701205CE7C046FDFEFFFFB8
:1048700008270140FFFFC3FFFFFFFFFD1902FEFFF6
:1048800003FCFFFFF8B504000D00160003689A68EA
:1048900052073CD45022825C012A3AD00121502296
:1048A0008154DA680A43DA60C369012B04D0FFF748
:1048B000B3FE071E29D100E00027636D164A1A4097
:1048C00080235B00134363650023A3655022A35438
:1048D000E36C124ADA62E36C114A1A63E36C114A20
:1048E0005A6323681C221A602268536810210B4304
:1048F00053602168403133002A00E06C00F07EF9FB
:104900002268936804210B4393603800F8BD0227A6
:10491000FBE70227F9E7C046FEF0FFFF2D4900083C
:10492000A3490008AF4900087047000010B5836A2A
:104930005A6D502111422CD1596D802292000A43A8
:104940005A651A68D068C0210901084214D1202193
:10495000595C002910D1116809070DD591684907E4
:104960000ED451680C20814351605A6D0B490A40A6
:104970000431FF310A435A651800FFF7D5FF10BD17
:104980005A6D20210A435A659A6D1F390A439A6568
:10499000F2E7DB6C5B6B9847F1E7C046FEFEFFFF7A
:1049A000704710B5806AFFF7FBFF10BD704710B568
:1049B000806A436D402213434365836D3C3A134341
:1049C0008365FFF7F3FF10BD70B504000D005023A1
:1049D000C35C012B4BD050230122C25403689A6858
:1049E00052071AD4234A4968914229D0996A2A6801
:1049F0005203520B0A439A622B685B0316D42B684E
:104A00009B0305D51C4A11688023DB030B4313600D
:104A100050230022E254002070BD436D2022134336
:104A2000436550230022C2540120F5E7124A116861
:104A300080231B040B4313600A20FFF7D5FDDEE73C
:104A4000996A2A685203520B914399622B685B035F
:104A500004D5094A136809490B4013602B689B036E
:104A6000D6D5054A136806490B401360D0E70220EB
:104A7000D2E7C0460110000008270140FFFF7FFF7A
:104A8000FFFFBFFF70B5002811DB8308134EC03352
:104A90009B009D5903242040C000FF221400844045
:104AA000A54389010A4082402A439A5170BD0F23D1
:104AB0000340083B9B0806339B00094A9446634425
:104AC0005C6803221040C000FC3215008540AC43F6
:104AD00089010A40824022435A60E7E700E100E092
:104AE00000ED00E0002805DB1F2318401E3B83403B
:104AF000014A13607047C04600E100E0013880239E
:104B00005B0498420FD2094A50600948036A1B02AD
:104B10001B0AC02109060B4303620023936007337D
:104B20001360002070470120FCE7C04610E000E061
:104B300000ED00E030B51C25446C25400124AC405C
:104B4000056C6C60046863608368102B04D0036894
:104B500099600368DA6030BD03689A600368D960C1
:104B6000F9E7000070B5041E3DD005681F4BE8183A
:104B70001421FBF7C9FA800060641D4B23642523D0
:104B80000222E2542B681B4A1A40A368E1680B43D7
:104B900021690B4361690B43A1690B43E1690B4335
:104BA000216A0B4313432B608023DB01A2689A42E6
:104BB00010D0114B19681C22656C15400F20A840BD
:104BC000814319601968606C02406068904002007F
:104BD0000A431A600023E36325220121A154013A0C
:104BE000A354002070BD0120FCE7C046F8FFFDBFC4
:104BF000000002400F80FFFFA800024070B50400D3
:104C00002420205C012832D02420012525540130A5
:104C1000205C012804D024230022E254022070BD2D
:104C20002430013525540020E063256828680126DA
:104C3000B04328602000FFF77DFF236B002B0BD0D3
:104C4000226813680E210B43136022681368012148
:104C50000B4313600020E2E72268136804218B43B2
:104C600013602268136806310B431360EDE70220DE
:104C7000D5E710B52523C35C022B06D00423C363FC
:104C800020330022C254012010BD026813680E2197
:104C90008B43136001680A6801239A430A601C224F
:104CA000416C0A40016C1C0094404C6025228354E6
:104CB00023330022C2540020E6E710B52523C35C4D
:104CC000022B03D00423C363012010BD02681368C4
:104CD0000E218B43136001680A6801239A430A601E
:104CE0001C22416C0A40016C1C0094404C6025223F
:104CF000835423330022C254836B002B02D0984785
:104D00000020E2E70020E0E770B5036C1968046852
:104D100025681C23426C134004229A40114214D08F
:104D20006A0712D523689B0603D4236804229343A1
:104D300023601C22436C1A40016C042393404B6097
:104D4000036B002B00D0984770BD02229A4011429D
:104D50001AD0AA0718D523689B0606D423680A220E
:104D6000934323602523093AC2541C22436C1A4002
:104D7000016C022393404B6024230022C254C36A77
:104D8000002BE1D09847DFE708229A401142DBD0A0
:104D90002B07D9D523680E22934323600E32436C30
:104DA0001A40016C01231C0094404C60C36325220F
:104DB000835423330022C254436B002BC4D0984742
:104DC000C2E70000F0B5002357E084685F000326C7
:104DD000BE40B4432600CC68BC4034438460446881
:104DE00094434A681609012232409A4022434260A5
:104DF00053E0DC080834A400265805321A4092001B
:104E00000F279740BE430F6997403A003243225024
:104E100057E0052600E00026A64034003C4302325D
:104E20009200474E9451474A9468EA432600AE43A5
:104E30004F68FF0201D52C432600424CA660E4686F
:104E4000260016404F68BF0201D52C4326003D4C7A
:104E5000E6606468260016404F68BF0301D52C4306
:104E60002600384C6660246822404E68F60301D55F
:104E70002A002243334C226001330C682200DA40BE
:104E80005DD001229A40250015401442F4D003243D
:104E90004E683440013C012C97D903224C682240D3
:104EA000032A09D0C2685E000324B440A243140060
:104EB0008A68B2402243C26003224C682240022A20
:104EC00097D004685E0003221700B740BC434F68C8
:104ED0003A40B24022430260C02292024C6814421F
:104EE000CAD0194C626B0126324362639A08941C43
:104EF000A400134EA75903261E40B4000F26A64057
:104F0000B743A026F605B04285D0104EB0420ED071
:104F10000F4EB0420DD00F4EB0420CD00E4EB042EC
:104F20000BD00E4EB04200D173E7062674E701267F
:104F300072E7022670E703266EE704266CE7F0BDF1
:104F40000000014000040140001002400004005035
:104F500000080050000C005000100050001C0050D1
:104F600003690B4201D0012070470020FCE7002AB2
:104F700001D0816170478162FCE7426913000B40F8
:104F80001B04914319438161704703689A69920732
:104F900001D500229A6203689A69D20703D49A69FC
:104FA00001210A439A61704710B58905890D1204E1
:104FB00011431943029B1943490049080468626878
:104FC0005B0D8020C0000340024803439A43114315
:104FD000616010BDFF63FF03F0B5C64600B5040075
:104FE0000D00170001688B69102216001E401A423E
:104FF00000D175E01023CB6100239846002623687A
:105000009869820631D4002E2FD16B1CF7D0FFF7A0
:10501000D5FAC01BA84201D8002DF0D121684B68F9
:105020008022D20113404222A25CD2B288690004DD
:1050300003D5002B01D1202A0ED123689B699B0642
:10504000DDD4FFF7BBFAC01B1928F6D9202342464E
:105050001A4390460126D2E74A688023DB011343B6
:105060004B60FFF7ABFA0700E7E7002E01D12022E3
:10507000DA610426434633431E0001252268936902
:10508000D90504D501210E43FF31D16101255A050F
:1050900006D50822164322688021C900D161012566
:1050A0009B051FD502231E43236880229200DA61EC
:1050B00001252000FFF769FF226853680B490B4068
:1050C0005360636C1E43666441232022E254002334
:1050D0002232A354023AA354280080BCB846F0BD43
:1050E0000025CBE7002DF7D0E3E7C04600E800FE3F
:1050F00070B504000D00160023689B699B0720D43F
:10510000320029002000FFF767FF00281BD16B1C2D
:10511000F2D0FFF753FA801BA84201D8002DEBD143
:1051200023689B699B07E7D4636C20221343636465
:105130004123E25400232232A354023AA354012013
:1051400000E0002070BD0120FCE7F0B5CE4600B5C0
:1051500082B007000D00160099463B689C692C4000
:10516000641B63425C410196B44221D14B4601333A
:10517000F3D0FFF723FA089BC01A484502D84B46E4
:10518000002BEAD13B689B692B405B1B5A42534181
:10519000019A9342E1D17B6C202213437B6441232B
:1051A000FA5400232232BB54023ABB54012000E0DF
:1051B000002002B080BCB946F0BD70B504000D00FF
:1051C000160003E023689B699B0612D523689B6940
:1051D0009B061BD4320029002000FFF7FDFE0028AB
:1051E00016D1FFF7EBF9801BA842EBD8002DEDD1CB
:1051F000E8E7636C2022134363644123E2540023F5
:105200002232A354023AA354012000E0002070BDD2
:105210000120FCE770B504000D00160024E09A6937
:10522000520702D5228D002A41D19A69D20614D59F
:105230001022DA610423636423682022DA61216882
:105240004B681C4803404B604123E2540023223248
:10525000A354023AA354012029E000236364EBE73E
:1052600023689B695B0716D523689B695B071DD480
:10527000320029002000FFF7AFFE002818D1236874
:105280009A699206CBD4FFF799F9801BA842E7D818
:10529000002DE9D1E4E7636C2022134363644123CA
:1052A000E254013B0022E254012000E0002070BDE6
:1052B0000120FCE700E800FE10B5041E59D0412390
:1052C000C35C002B43D041232422E254226813689C
:1052D00001218B4313602268274B61680B401361E7
:1052E0002268936825490B409360E368012B34D012
:1052F000226884231B02A1680B439360E368022B9E
:1053000032D0226851681E4B0B4353602268D36829
:105310001A490B40D360236962691343A2691202E0
:1053200021681343CB602268E369216A0B43136051
:105330002268136801210B43136000236364412238
:105340001F31A15423630132A354002010BD403308
:105350000022C254FDF7C4FEB5E7226880231B0279
:10536000A1680B439360C9E72368802212015A6049
:10537000C7E70120EAE7C046FFFFFFF0FF7FFFFF1E
:1053800000800002F0B585B004000F000292039384
:105390000A9D4123C35C202B00D09BE02033C35CDB
:1053A000012B00D199E040230122C254FFF706F9F6
:1053B0000600802100901923012209022000FFF736
:1053C000C4FE002800D08AE041232122E2540133A8
:1053D000113AE25400236364029A6262039A62857E
:1053E0006363638D9BB2FF2B0BD9FF2323857F3B28
:1053F0003F4A00925B04FF2239002000FFF7D4FDF2
:1054000018E0628D92B222858023D2B23849009191
:105410009B0439002000FFF7C7FD0BE0628D92B2BC
:1054200022858023D2B2002100919B043900200004
:10543000FFF7BAFD638D9BB2002B34D032002900F8
:105440002000FFF755FE00284BD12368626A1278CE
:105450009A62636A01336362638D013B9BB2638529
:10546000238D013B9BB22385628D92B2002AE1D04D
:10547000002BDFD100962B00002280212000FFF7B7
:1054800064FE00282FD1638D9BB2FF2BC6D9FF236A
:1054900023857F3B002200925B04FF32390020000D
:1054A000FFF782FDC6E7320029002000FFF785FEE6
:1054B00000281AD123682022DA6121684B680D4D3B
:1054C0002B404B604123E25400232232A354023A82
:1054D000A35400E0022005B0F0BD0220FBE701204C
:1054E000F9E70120F7E70120F5E70120F3E7C046DF
:1054F0000020008000E800FEF0B585B004000F0039
:10550000029203930A9D4123C35C202B00D09BE0B1
:105510002033C35C012B00D199E040230122C25407
:10552000FFF74CF8060080210090192301220902A0
:105530002000FFF70AFE002800D08AE04123222243
:10554000E2540133123AE25400236364029A626225
:10555000039A62856363638D9BB2FF2B0BD9FF2394
:1055600023857F3B3F4A00925B04FF2239002000E5
:10557000FFF71AFD18E0628D92B222858023D2B225
:10558000384900919B0439002000FFF70DFD0BE026
:10559000628D92B222858023D2B2002100919B04B9
:1055A00039002000FFF700FD638D9BB2002B34D043
:1055B000320029002000FFF72DFE00284BD1236880
:1055C0005B6A626A1370636A01336362238D013B15
:1055D0009BB22385628D013A92B26285628D92B24E
:1055E000002AE1D0002BDFD100962B000022802181
:1055F0002000FFF7AAFD00282FD1638D9BB2FF2B5F
:10560000C6D9FF2323857F3B002200925B04FF3233
:1056100039002000FFF7C8FCC6E73200290020004F
:10562000FFF7CBFD00281AD123682022DA61216818
:105630004B680D4D2B404B604123E2540023223236
:10564000A354023AA35400E0022005B0F0BD0220AA
:10565000FBE70120F9E70120F7E70120F5E701204A
:10566000F3E7C0460024008000E800FEF0B54123C7
:10567000C35C202B20D12033C35C012B1ED04024DF
:10568000012202554125242343550668336893437C
:105690003360066833680A4F3B40336006683368FE
:1056A0001943316001680B6813430B602023435595
:1056B000002303550020F0BD0220FCE70220FAE79A
:1056C000FFEFFFFFF0B54123C35C202B1ED1203339
:1056D000C35C012B1CD04024012202554125242308
:1056E0004355066833689343336006683368094F4F
:1056F0003B4009021943316001680B6813430B609A
:1057000020234355002303550020F0BD0220FCE771
:105710000220FAE7FFF0FFFF70B502001A4B1D6888
:10572000802080002C000440184B1B6A0126334067
:10573000054206D0002B04D0134D2868144E30408B
:105740002860114D28680326B04310432860114893
:10575000026904252A430261012912D040BF20BFFB
:1057600020BF0C490A69042082430A61002C07D03B
:10577000002B05D0044A116880239B000B43136063
:1057800070BD30BFEDE7C046007000400000014032
:10579000FFFDFFFF00ED00E010B5264BDA680C239B
:1057A0001340082B42D00C2B11D0042B09D0214BD5
:1057B0005A68520B0723134001338020000298409F
:1057C00010BD1C4B1B68DB0632D51B48F8E7910C5B
:1057D0000F230B401949C85C920D03231A40541C37
:1057E000144BDB68DB0309D5154A00230021FAF7C7
:1057F00075FD22000023FAF751FDE1E70D4B1B6810
:10580000DB0609D50C4A00230021FAF767FD2200C8
:105810000023FAF743FDD3E70A4A00230021FAF7F1
:105820005DFD22000023FAF739FDC9E70448C7E708
:105830000448C5E70010024000093D00C8D7000831
:1058400000127A000024F400F0B583B0041E00D1E9
:105850009FE2C54BDA680C251540DE6880235B02A9
:105860001E400368DB0736D5082D2CD00C2D28D020
:10587000636880225202934255D0A022D202934202
:1058800058D0B94B1A68B9490A401A601A68802181
:1058900049020A400192019A1A68B5490A401A6001
:1058A0006368002B52D0FEF789FE0700AE4B1B68E1
:1058B0009B0310D4FEF782FEC01B6428F6D9032098
:1058C00068E2002ED4D0A84B1B689B0303D5636805
:1058D000002B00D160E223689B076DD5E3689A0630
:1058E00005D5A148026820210A4302608B43042D9C
:1058F0003CD00C2D38D0002B00D1B0E09A490A687A
:105900000920824313430B60FEF758FE0600964BB6
:105910001B685B0700D599E0FEF750FE801B02284C
:10592000F5D9032036E2904A116880235B020B43CD
:105930001360B5E78C4B19688022D2020A431A60C3
:105940001968802252020A431A60A9E7FEF736FE60
:105950000700854B1B689B03BDD5FEF72FFEC01BC0
:105960006428F6D9032015E2002EC4D17E4A1268BD
:10597000520702D5002B00D110E27B4E72687D49A0
:105980000A40216909020A437260326809218A4388
:1059900013433360FFF700FFF26812090F2313402F
:1059A000754AD35CD840754B1860754B1868FEF784
:1059B000BDFD002800D0EDE12368DB062DD5002DCC
:1059C00060D1694B1B689B0503D5E369002B00D1AF
:1059D000E6E1654A53686B490B40616A0B435360CB
:1059E00053681B021B0A216A09060B435360636A52
:1059F000590B013180231B028B40D16809090F220A
:105A00000A405D498A5CD3405C4A13605C4B18686D
:105A1000FEF78CFD002800D0BCE123681B077DD574
:105A20006369002B67D0504A136D01210B43136546
:105A3000FEF7C4FD06004C4B1B6D9B076ED4FEF7B2
:105A4000BDFD801B0228F6D90320A3E146494B681F
:105A5000484A13402269120213434B60ACE7424AA2
:105A6000136801218B431360FEF7A8FD06003E4B2F
:105A70001B685B07A0D5FEF7A1FD801B0228F6D9A5
:105A8000032087E1E369002B22D0374A1168802385
:105A90005B000B431360FEF791FD0600324B1B6861
:105AA0009B0506D4FEF78AFD801B0228F6D9032049
:105AB00070E12D4A536833490B40616A0B435360D0
:105AC00053681B021B0A216A09060B435360A4E7B3
:105AD000254A13682C490B401360FEF76FFD060042
